:020000040800F2
:1000000000040020071C0008C51F0008C71F0008C7
:10001000CB1F0008CF1F0008D31F000800000000FE
:10002000000000000000000000000000D71F0008D2
:10003000D91F000800000000DB1F0008DD1F0008BA
:10004000271C0008271C0008271C0008271C000884
:10005000271C0008271C0008271C0008271C000874
:10006000271C0008271C0008271C0008271C000864
:10007000271C0008271C0008271C0008271C000854
:10008000271C0008271C0008271C0008271C000844
:10009000271C0008271C0008271C0008271C000834
:1000A000271C0008271C0008271C0008271C000824
:1000B00057200008271C0008271C0008271C0008E0
:1000C000271C0008271C0008271C0008271C000804
:1000D000271C0008E51F0008271C0008271C000833
:1000E000271C0008271C0008271C0008271C0008E4
:1000F000271C0008271C0008271C0008271C0008D4
:10010000271C0008271C0008271C0008271C0008C3
:10011000271C0008271C0008271C0008271C0008B3
:10012000271C0008271C0008271C0008271C0008A3
:1001300000F002F800F067F80AA090E8000C824492
:100140008344AAF10107DA4501D100F05CF8AFF26F
:10015000090EBAE80F0013F0010F18BFFB1A43F0A5
:1001600001031847A4660000C466000010F8013BB4
:100170000A4413F0030408BF10F8014B1D1108BF17
:1001800010F8015B641E05D010F8016B641E01F8C5
:10019000016BF9D1002D15D010F8014B03F00C03C1
:1001A0000C2BA1EB04040ABF10F8013BA4EB831451
:1001B000A4EB032405F1010314F8016B5B1E01F8A5
:1001C000016BF9D5914238BF10F8013BD1D370478C
:1001D0000023002400250026103A28BF78C1FBD850
:1001E000520728BF30C148BF0B6070471FB504F0ED
:1001F00033FA04000020002104F04AFE401C606035
:100200001FBD10B510BD04F0F3F91146FFF7EEFF66
:1002100001F0C0FD04F01AFA03B4FFF7F2FF03BCCB
:1002200003F028FD31490143314A1160704770B530
:10023000002100230F22C4780CB32D4C246804F451
:10024000E064C4F5E064210AC1F10403CA404478C3
:1002500004FA03F18478144021430901254C0678FF
:10026000A155047804F01F050124AC4005786D11F8
:100270004FF0E02606EB8505C5F8004109E004785B
:1002800004F01F050124AC401B4D0678761145F89B
:10029000264070BD194A0A400243154B1B1F1A60C5
:1002A000704739B1124A121D12680243104B1B1DD0
:1002B0001A6006E00E4A121D126882430C4B1B1D89
:1002C0001A607047042808D14FF0E021096941F015
:1002D00004014FF0E022116107E04FF0E0210969CD
:1002E00021F004014FF0E022116170470000FA058F
:1002F0000CED00E000E400E080E100E080FFFF1F83
:1003000010B50446C549601A8C422FD009DCC44898
:10031000201810D0B0F5806F16D0B0F5006F4AD11C
:100320001BE0B0F5806F2AD0B0F5006F30D0B0F58B
:10033000406F40D135E00121042000F0F9FA00219E
:10034000042000F0F5FA37E00121082000F0F0FA6F
:100350000021082000F0ECFA2EE00121102000F02E
:10036000E7FA0021102000F0E3FA25E00121202027
:1003700000F0DEFA0021202000F0DAFA1CE0012172
:10038000402000F0D5FA0021402000F0D1FA13E01F
:100390000121802000F0CCFA0021802000F0C8FA72
:1003A0000AE00121080200F0C3FA00214FF4807036
:1003B00000F0BEFA00E000BF00BF10BD10B5012183
:1003C000084600F0B5FA0021012000F0B1FA10BD96
:1003D0002DE9F041024600250026002000230024DC
:1003E000002791F803C00CF00F0591F803C01CF032
:1003F000100F03D091F802C04CEA050591F800C037
:10040000BCF1000F31D0146800202BE04FF0010C3C
:100410000CFA00F3B1F800C00CEA03069E4220D1AA
:1004200083004FF00F0C0CFA03F7BC4305FA03FCF2
:100430004CEA040491F803C0BCF1280F06D14FF038
:10044000010C0CFA00FCC2F814C00AE091F803C0D9
:10045000BCF1480F05D14FF0010C0CFA00FCC2F8BA
:1004600010C0401C0828D1D31460B1F800C0BCF102
:10047000FF0F34DD546800202EE000F1080C4FF02F
:10048000010808FA0CF3B1F800C00CEA03069E421A
:1004900021D183004FF00F0C0CFA03F7BC4305FA8F
:1004A00003FC4CEA040491F803C0BCF1280F05D109
:1004B00000F1080C08FA0CF8C2F8148091F803C097
:1004C000BCF1480F07D100F1080C4FF0010808FA01
:1004D0000CF8C2F81080401C0828CED35460BDE848
:1004E000F0814FF6FF710180022181700421C170FB
:1004F00070470246002093680B4201D0012000E0C3
:10050000002070470146886880B27047024600208C
:10051000D3680B4201D0012000E000207047014663
:10052000C86880B2704701617047416170470AB185
:10053000016100E041617047C16070474FF4803253
:100540000A438261816182618269826970470246E1
:100550000020344B18684FF68073184040EA0210B0
:100560000843304B186070472F49C8617047F0B599
:100570000A4600230024002100252A4E7168C0F39A
:10058000034583B200F44016B6F5401F08D121F0B0
:100590007061244E766826F07066224F7E6012E00D
:1005A00000F48016B6F5801F06D1032606FA05F47E
:1005B000A14341F0706106E0460D360103FA06F6EC
:1005C000B14341F0706122B1460D360103FA06F6DF
:1005D0003143144E7160F0BD30B500228B071C0F03
:1005E0000F2303FA04F20F4B08338C1053F8243016
:1005F00093430C4C08348D1044F8253023468C105E
:1006000053F824308C07240F00FA04F42343054CDC
:1006100008348D1044F8253030BD0000001401402E
:1006200000F8FEBF0000014000002042DC480068E6
:1006300040F00100DA49086008464068D94908409E
:10064000D749486008460068D7490840D44908603F
:100650000846006820F4802008600846406820F4BE
:10066000FE004860002088607047CD49096821F489
:100670008031CB4A11601146096821F48021116054
:10068000B0F5803F03D0B0F5802F0ED106E0C4490D
:10069000096841F48031C24A116007E0C049096825
:1006A00041F4A021BE4A116000E000BF00BF7047C6
:1006B00010B501460022002300204A11012A02D170
:1006C000B74C236806E0022A02D1B54C236A01E048
:1006D000B34C636A01F01F02012494401C4201D014
:1006E000012000E0002010BD38B50020009000245B
:1006F000002500BF3120FFF7DBFF05460098401CB6
:1007000000901DB90098B0F5A06FF3D13120FFF72C
:10071000CFFF08B1012400E00024204638BD014687
:1007200000209F4A106820F0F80040EAC1001060E5
:1007300070479E490860704702460020984B5868F1
:1007400020F47C1042EA01031843954B586070472F
:1007500096490866704701460020914A506820F08B
:1007600003000843506070478D48406800F00C005B
:100770007047014600208A4A506820F0F000084384
:100780005060704701460020854A506820F4E060C0
:1007900008435060704701460020814A506820F4A9
:1007A000605040EAC1005060704729B17C4A527ADB
:1007B00002437B4B5A7204E0794A527A8243784B67
:1007C0005A7270477A490860704701460020744A9F
:1007D000506820F440400843506070470021754A3B
:1007E00011706F4A82F82010012802D0042808D125
:1007F00003E001216F4A117004E005216D4A117078
:1008000000E000BF00BF70476B4908607047644953
:10081000096A0143624A11627047674944390860B6
:10082000704730B500210022002400235C4D6D6824
:1008300005F00C0121B1042905D0082923D105E0D8
:100840005E4D056022E05D4D05601FE0544D6D6812
:1008500005F47012022505EB9242514D6D6805F4C6
:1008600080341CB9564D554305600BE04C4D6D6806
:1008700015F4003F03D0524D5543056002E04F4D43
:100880005543056002E04D4D056000BF00BF444D7B
:100890006D6805F0F00109094A4D6B5C0568DD40A3
:1008A00045603F4D6D6805F4E061090A454D6B5C9C
:1008B0004568DD4085603A4D6D6805F46051C90AB0
:1008C000404D6B5C4568DD40C560354D6D6805F495
:1008D0004041890B3C4D6B5CC568B5FBF3F5056188
:1008E00030BD29B12E4A526902432D4B5A6104E0B2
:1008F0002B4A526982432A4B5A61704729B1284AD0
:1009000092690243264B9A6104E0254A9269824328
:10091000234B9A61704729B1214AD2690243204B87
:10092000DA6104E01E4AD26982431D4BDA617047E6
:1009300029B11B4AD2680243194BDA6004E0184A15
:10094000D2688243164BDA60704729B1144A1269A3
:100950000243134B1A6104E0114A12698243104B9F
:100960001A61704714494039086070470F49C864DC
:1009700070470B49C87170470948406A40F0807061
:1009800007494862704701460020054A92680A42BA
:1009900001D0012000E000207047014988727047B3
:1009A000001002400000FFF8FFFFF6FE0000424288
:1009B000D8004242201002408004424200127A00D5
:1009C00000093D00000000201000002010B5044682
:1009D000BD4820180FD0B0F5806F16D0B0F5784F15
:1009E0001DD101210803FFF7A3FF00214FF4805020
:1009F000FFF79EFF14E001218803FFF7A6FF002107
:100A00004FF48040FFF7A1FF0AE00121C803FFF780
:100A10009CFF00214FF40040FFF797FF00E000BF6C
:100A200000BF10BD10B50022028802F441520B88AD
:100A30004C8823438C882343CC8823430C8923434D
:100A40004C8923438C892343CC8923431A43028056
:100A5000838B4FF2FF74234083830B8A038210BD84
:100A60002DE9F04786B005460C464FF000090227F5
:100A70004FF000084FF0010A0026A88B4FF240010A
:100A80000840A88302202884B5F81C9020890228F9
:100A900001D100BF31E0A08810B94FF0010A01E098
:100AA0004FF0020A01A8FFF7BCFEE088B0F5007F16
:100AB0000AD1019800EB8000400021890902B0FBB7
:100AC000F1F0401D86B20BE04FEA4A1021894843FD
:100AD000019901EB81014900B1FBF0F0401D86B2A4
:100AE0000A20B6FBF0F606F00108A6EB0800C0F3FA
:100AF0004F074FF6FF7000EA0828022F01DBFF2F97
:100B000002DD02274FF0000847EA0800E1880843A9
:100B10002884208840F4006061880843A188084345
:100B20006189084340EA0909A5F81C9006B0BDE8B0
:100B3000F0870021018041808180C1800181418155
:100B40008181C1810721018270470021018041809C
:100B50008180C1800221018100214181704721B142
:100B6000028842F04002028004E002884FF6BF7320
:100B70001A400280704721B1828B42F480628283E6
:100B800004E0828B4FF6FF331A408283704730B502
:100B9000002400230C110125A540ABB21AB18588B1
:100BA0001D43858002E085889D43858030BD1AB154
:100BB00083880B43838002E083888B438380704764
:100BC00081817047014688897047A1F57E42FF3ACE
:100BD00004D0028842F48072028004E002884FF65A
:100BE000FF631A400280704721B1828842F00402FC
:100BF000828004E082884FF6FB731A40828070473F
:100C000002884FF2FF731A40028002880A43028072
:100C10007047018841F480510180704721B10288FA
:100C200042F40052028004E002884DF6FF731A403D
:100C30000280704702460020012901D0108B00E09D
:100C4000908A70470146088A7047B1F5804F04D1F9
:100C5000028842F48042028004E002884BF6FF736F
:100C60001A40028070470246002013890B4201D0CF
:100C7000012000E000207047CA4302817047F0B5B0
:100C80000246002000240023002501F00F07012662
:100C9000BE40B4B20B1101269E40B3B2968806EA5C
:100CA00003051689264202D00DB1012000E0002084
:100CB000F0BD10B5002201F00F040123A3409AB249
:100CC000D343038110BD000000C8FFBF10B5044628
:100CD000F749601A8C4245D00CDCB4F1804F1DD02E
:100CE000F448201823D0B0F5806F29D0B0F5006FFC
:100CF00054D12EE0B0F5806F3DD0B0F58E3F03D0DB
:100D0000B0F5923F4AD13FE00121C802FFF710FE43
:100D100000214FF40060FFF70BFE40E00121084680
:100D2000FFF713FE00210120FFF70FFE37E001213E
:100D30000220FFF70AFE00210220FFF706FE2EE048
:100D400001210420FFF701FE00210420FFF7FDFD33
:100D500025E001210820FFF7F8FD00210820FFF71A
:100D6000F4FD1CE001211020FFF7EFFD0021102011
:100D7000FFF7EBFD13E001212020FFF7E6FD002146
:100D80002020FFF7E2FD0AE001214803FFF7D0FD34
:100D900000214FF40050FFF7CBFD00E000BF00BF83
:100DA00010BD028802F08F020280CA884B881A4365
:100DB00003881A4302808A8882850A880285BE4A8F
:100DC000904202D0BD4A904201D10A7A02860122A5
:100DD0008282704770B5002400220023058C4FF6F4
:100DE000FE7635400584028C8388048B4FF68F7520
:100DF0002C400D882C43751E2A400D892A434D88AE
:100E00002A43CD888586AC4DA84202D0AB4DA8427E
:100E100013D14FF6F7752A404D892A434FF6FB75DB
:100E20002A408D882A4347F6FF652B4047F6FF5539
:100E30002B408D892B43CD892B43838004830284EF
:100E400070BD70B5002400220023058C4FF6EF76AC
:100E500035400584028C8388048B48F6FF752C404E
:100E60000D884FF6FF7606EA05252C434FF6DF7511
:100E70002A400D8906EA05152A434D8806EA05151C
:100E80002A43CD8805878C4DA84202D08B4DA842BD
:100E90001DD14FF67F752A404D894FF6FF7606EA41
:100EA00005152A434FF6BF752A408D8806EA0515B9
:100EB0002A4347F6FF352B4047F2FF752B408D89BB
:100EC00006EA85052B43CD8906EA85052B438380F9
:100ED0000483028470BD70B5002400220023058CB9
:100EE0004FF6FF6635400584028C8388848B4FF66D
:100EF0008F752C400D882C434FF6FF552A400D89E5
:100F00004FF6FF7606EA05252A434D8806EA0525B1
:100F10002A43CD888587684DA84202D0674DA842F4
:100F20001DD14FF2FF752A404D894FF6FF7606EA34
:100F300005252A434FF6FF352A408D8806EA052508
:100F40002A4346F6FF752B4045F6FF752B408D89E9
:100F500006EA05152B43CD8906EA05152B43838048
:100F60008483028470BD70B5002400220023058CA8
:100F70004EF6FF7635400584028C8388848B48F6D4
:100F8000FF752C400D884FF6FF7606EA05252C43A9
:100F90004DF6FF752A400D8906EA05352A434D882E
:100FA00006EA05352A43CD88A0F84050424DA842B4
:100FB00002D0424DA84207D1C3F30D038D894FF6ED
:100FC000FF7606EA85152B4383808483028470BDF7
:100FD000828B4FF2FF331A408283828B4FF6FF736E
:100FE00003EA01231A4382837047F0B50C46154685
:100FF000002100220026078C4EF6FF7C07EA0C0732
:101000000784818B028C4FF6FF7707EA043640F69F
:10101000FF4739404FF6FF7707EA05274FF6FF7C79
:101020000CEA033C47EA0C0739434DF6FF773A4098
:1010300046F480573A4381830284F0BD828B4FF699
:10104000F3731A408283828B0A4382837047F0B520
:101050000C461546002100220026078C4FF6FF6C37
:1010600007EA0C070784818B028C4FF6FF7707EAAB
:1010700004264FF60C7739404FF6FF7707EA03173F
:101080002F4339434FF6FF573A4046F480773A43AF
:1010900081830284F0BD028B4FF2FF331A4002833A
:1010A000028B4FF6FF7303EA01231A430283704752
:1010B0000010004000FCFFBF002C01400034014044
:1010C000F0B50C461546002100220026078C4FF68D
:1010D000EF7C07EA0C070784018B028C4FF6FF7741
:1010E00007EA041640F6FF4739404FF6FF7707EA54
:1010F000033739434FF6FF7707EA052739434FF6A1
:10110000DF773A4046F010073A4301830284F0BD8E
:10111000028B4FF6F3731A400283028B0A43028359
:101120007047F0B50C46154600210022068C4FF69C
:10113000FE773E400684018B028C4FF60C763140E0
:101140007E1C06EA03162E4331437E1E324044F0D5
:101150000106324301830284F0BD70B505460C469A
:10116000208850B92389A28861882846FFF7D9FFD3
:10117000E1882846FFF7CCFF25E0208804280AD123
:101180002389A28861882846FFF79AFFE1882846CC
:10119000FFF781FF17E0208808280AD12389A28859
:1011A00061882846FFF753FFE1882846FFF746FF8E
:1011B00009E02389A28861882846FFF716FFE188A5
:1011C0002846FFF705FF70BD2DE9F04105460C46A6
:1011D00000260127608808B9022600E00026A088C2
:1011E000012801D1022700E001272088A0B9238926
:1011F000A28861882846FFF794FFE1882846FFF718
:1012000087FF23893A4631462846FFF759FFE18890
:101210002846FFF740FF13E02389A288618828460B
:10122000FFF74EFFE1882846FFF735FF23893A464E
:1012300031462846FFF775FFE1882846FFF768FF2B
:10124000BDE8F0810A884B881A438B881A43CB8803
:101250001A430B891A434B891A438B891A43A0F806
:10126000442070474FF6FF71818000210180C180CA
:101270004180017270470021018041808180C180DE
:10128000018141818181C1817047002101804180BC
:10129000012181800021C1800181704700210180EE
:1012A00041808180C180018141818181704721B16C
:1012B000028842F00102028004E0028840F2FE331C
:1012C0001A400280704731B1B0F8442042F4004225
:1012D000A0F8442005E0B0F84420C2F30E02A0F8C4
:1012E000442070471AB183890B43838102E08389CC
:1012F0008B43838170478182704741EA0203A0F8E3
:10130000483070471AB183890B43838102E0838997
:101310008B438381704701894FF6F8721140018138
:1013200070470A46002101894FF68F731940114317
:101330000181704730B504460D4629462046FFF727
:10134000F0FF208940F00700208130BD2DE9F041F9
:1013500004460D4616461F46602D06D13B46012227
:1013600031462046FFF7ACFE05E03B460122314600
:101370002046FFF7D6FE29462046FFF7D2FF2089F8
:1013800040F007002081BDE8F08170B50C460021D7
:101390000189C9B244EA02054FF6FF7606EA032640
:1013A00035432943018170BD2DE9F04105460E46C4
:1013B00017469846002443463A4631462846FFF7EA
:1013C000E4FF2C894FF6F870044044F007044FF610
:1013D0008F70044044F070042C81BDE8F081F0B5BA
:1013E00004460D4616461F463B46324629462046D1
:1013F000FFF7CBFF208940F480402081F0BD0185BC
:10140000828270470A460021018840F28F331940DA
:10141000114301807047F0B50C4615461E46002169
:10142000002200230189028B038C4FF6F8773940A4
:1014300021434FF6FC473A4040F201173A434FF63A
:10144000DD773B404FF6FF7707EA06172F433B4314
:10145000018102830384F0BD0A460021018B4FF60F
:101460008F7319401143018370470A460021018B95
:1014700048F6FF7319404FF6FF7303EA022319433E
:10148000018370470A460021818B4FF68F73194004
:101490001143818370470A460021818B48F6FF7310
:1014A00019404FF6FF7303EA022319438183704703
:1014B00021B1028842F08002028004E0028840F2FA
:1014C0007F331A400280704721B1828842F00402C3
:1014D000828004E082884FF6FB731A408280704756
:1014E00021B1828842F00802828004E082884FF6AF
:1014F000F7731A408280704721B1828842F001025E
:10150000828004E082884FF6FE731A408280704722
:101510000A460021018B4FF6F773194011430183EE
:1015200070470A460021018B4FF2FF7319404FF6B6
:10153000FF7303EA02231943018370470A4600211F
:10154000818B4FF6F77319401143818370470A4628
:101550000021818B4FF2FF7319404FF6FF7303EAAE
:1015600002231943818370470A460021018B4FF6FD
:10157000FB7319401143018370470A460021018B18
:101580004FF6FF3319404FF6FF7303EA0223194366
:10159000018370470A460021818B4FF6FB73194087
:1015A0001143818370470A460021818B4FF6FF3338
:1015B00019404FF6FF7303EA0223194381837047F2
:1015C0000A460021018B4FF67F73194011430183B6
:1015D00070470A460021018BC1F30E014FF6FF73DD
:1015E00003EA02231943018370470A460021818BD5
:1015F0004FF67F7319401143818370470A460021DB
:10160000818BC1F30E014FF6FF7303EA02231943E6
:10161000818370470A460021018C4FF6FD73194003
:101620001143018470470A460021018C4FF6F7737D
:1016300019401143018470470A460021018C4FF67E
:10164000DF7319404FF6FF7303EA02131943018455
:1016500070470A460021018C4FF67F7319404FF600
:10166000FF7303EA02131943018470470A460021FD
:10167000018C4FF6FF5319404FF6FF7303EA022324
:101680001943018470470A460021018C4FF2FF7311
:1016900019404FF6FF7303EA022319430184704790
:1016A0000A460021018C4DF6FF7319404FF6FF7377
:1016B00003EA023319430184704710B5038C0124F7
:1016C0008C40A3430384038C02FA01F4A4B22343A5
:1016D000038410BD10B5038C04248C40A343038401
:1016E000038C02FA01F4A4B22343038410BD30B585
:1016F000038C01248C40A343038409B1082918D129
:1017000000F1180303EB61031B684FF68F7423404D
:1017100000F1180404EB6104236000F1180303EBEB
:1017200061031B68134300F1180404EB6104236098
:101730001FE00B1FC3F34E0400F118031B5948F6BA
:10174000FF7423400C1FC4F34E0500F118046351CD
:101750000B1FC3F34E0400F118031B594FF6FF741F
:1017600004EA022423430C1FC4F34E0500F11804BD
:10177000635130BD21B1028842F00202028004E0D0
:10178000028840F2FD331A400280704721B102887E
:1017900042F00402028004E0028840F2FB331A4067
:1017A0000280704721B1828842F08002828004E08A
:1017B00082884FF67F731A4082807047028840F219
:1017C000F7331A40028002880A43028070478288F9
:1017D0004FF68F731A40828082880A438280704756
:1017E00002894FF6F8731A40028102890A43028186
:1017F000704702894FF67F731A40028102890A43BB
:101800000281704781847047818570478186704767
:101810000187704781877047A0F8401070470288A1
:10182000D2B2028002880A43028070470146888E45
:1018300070470146088F70470146888F7047014600
:10184000B1F8400070470146888C70470146088D0A
:10185000704702460020138A0B4201D0012000E0AD
:1018600000207047CA430282704730B5024600200C
:1018700000230024158A05EA0103958905EA01047D
:1018800013B10CB1012000E0002030BDCA43028238
:101890007047000010B50446D749601A8C422BD01F
:1018A00006DCD648201813D0B0F5806F38D119E087
:1018B000B0F5806F2AD0B0F56C4F31D1012188038B
:1018C000FFF736F800214FF48040FFF731F828E0A9
:1018D00001214804FFF739F800214FF40030FFF7E9
:1018E00034F81EE001218804FFF72FF800214FF49F
:1018F0008020FFF72AF814E00121C804FFF725F83B
:1019000000214FF40020FFF720F80AE0012108052C
:10191000FFF71BF800214FF48010FFF716F800E0E6
:1019200000BF00BF10BD2DE9F04786B005460E464A
:101930000024A24600BF00BF00272F462C8A4CF689
:10194000FF700440F08804432C82AC894EF6F310FB
:101950000440B08831890843718908430443AC814D
:10196000AC8A4FF6FF400440B0890443AC8201A822
:10197000FEF757FFA248874202D1DDF810A001E030
:10198000DDF80CA00AEBCA0000EB0A1031688900F0
:10199000B0FBF1F86420B8FBF0F0040120096421E9
:1019A00001FB1089322000EB0910B0FBF1F000F0D0
:1019B0000F0004432C8106B0BDE8F0874FF41651A8
:1019C000016000218180C18001810C2141810021C1
:1019D0008181704710B502460020108A4FF2FF0344
:1019E00018400B884C8823438C882343CC8823439E
:1019F0001843108210BD0021018041808180C18088
:101A0000704721B1828942F40052828104E08289C8
:101A10004DF6FF731A4082817047F0B503460024EB
:101A20000026002500201846C1F3421401F01F06CD
:101A3000012707FA06F5012C01D10C3004E0022C35
:101A400001D1103000E014301AB107682F4307604D
:101A500002E00768AF430760F0BD1AB1838A0B4309
:101A6000838202E0838A8B4383827047028A4FF627
:101A7000F0731A400282028A0A4302827047828906
:101A80004FF2FF731A40828182890A438281704734
:101A900021B1828942F00202828104E082894FF6FC
:101AA000FD731A4082817047028A4FF6DF731A4035
:101AB0000282028A0A430282704721B1028A42F4FA
:101AC0008042028204E0028A4BF6FF731A400282CF
:101AD0007047C1F308028280704701468888C0F3CE
:101AE00008007047818941F0010181817047028BB4
:101AF000D2B20283028B42EA012202837047028B38
:101B000002F47F420283028B0A430283704721B1B1
:101B1000828A42F02002828204E0828A4FF6DF73DA
:101B20001A408282704721B1828A42F0100282827A
:101B300004E0828A4FF6EF731A408282704721B127
:101B4000828A42F00802828204E0828A4FF6F773AA
:101B50001A4082827047828A4FF6FB731A40828253
:101B6000828A0A438282704721B1828A42F002024D
:101B7000828204E0828A4FF6FD731A4082827047A7
:101B80000246002013880B4201D0012000E0002013
:101B90007047CA430280704770B502460B46002466
:101BA000002100250020C3F3421503F01F01012688
:101BB00006FA01F1012D02D19689314006E0022D8D
:101BC00002D1168A314001E0968A31401C1201266A
:101BD00006FA04F41688344011B10CB1012000E07B
:101BE000002070BD10B5002200230A120124944089
:101BF000A3B2DC43048010BD004C004000BCFFBF1A
:101C00000038014070470B4880470B4981F3088832
:101C10000A480047FEE7FEE7FEE7FEE7FEE7FEE7CD
:101C2000FEE7FEE7FEE7FEE705480649044A064BE5
:101C300070470000051C0008005A00203101000810
:101C400000580020005A0020005800200CB5002049
:101C5000019000904748006840F480304549086092
:101C600000BF4448006800F4003000900198401C18
:101C70000190009818B90198B0F5A06FF1D13D48D6
:101C8000006810F4003F02D00120009001E0002025
:101C900000900098012843D13748006840F01000B8
:101CA000354908600846006820F0030008600846CF
:101CB000006840F0020008602E4840682D494860E6
:101CC0000846406848600846406840F480604860C4
:101CD0000846406820F47C1048600846406840F49C
:101CE000E81048600846006840F08070086000BF57
:101CF0002048006810F0007FFAD01E48406820F0AD
:101D000003001C4948600846406840F002004860F3
:101D100000BF1848406800F00C000828F9D101E025
:101D200000BFFEE70CBD10B5FFF790FF10BD10B56A
:101D30001048006840F001000E49086008464068FD
:101D40000E4908400B494860084600680C490840A5
:101D5000084908600846006820F4802008600846AA
:101D6000406820F4FE00486000208860FFF7DBFF39
:101D700010BD000000100240002002400000FFF8EB
:101D8000FFFFF6FE002000E0401C40F6FF71884295
:101D9000FAD37047FFF7CBFF00F0F2F900F0FEF93D
:101DA00000F0A6F900F001FB00F0AFFA4FF4E130CB
:101DB00001F06EFF00F019FA4FF480715748FEF7FA
:101DC000B4FB4FF480715548FEF7ADFB0421544835
:101DD000FEF7ABFB04215248FEF7A5FB00F082FDA5
:101DE00001F046FD4FA20021084600F04DFD50A233
:101DF0001021002000F048FD51A22021002000F019
:101E000043FD75E00DE001F04BFD28B14EA220210D
:101E1000002000F039FD05E050A22021002000F054
:101E200033FDF0E700BF012000F0E9FA012001F0E6
:101E300049FD4FF47A7000F0E2FA4D48007803282B
:101E400025DD4C480078AA2801D1012000E00020BF
:101E50004849097B022901D1012100E00021084005
:101E60004449497B09B9012100E00021084205D01D
:101E700041A22021002000F007FD04E044A220211F
:101E8000002000F001FD00203949087000E02FE03B
:101E9000012000F0B4FA042001F027FD4FF47A701D
:101EA00000F0ADFA3248007803281FDD3148007891
:101EB000AA2801D1012000E000202E49097B022937
:101EC00001D1012100E0002108402A49497B09B9DC
:101ED000012100E00021084204D033A2202100208B
:101EE00000F0D2FC00202249087000E000E000E091
:101EF00088E700BF10E04FF47A7000F080FA052107
:101F00002F4801F07EFE4FF47A7000F078FA052138
:101F10002B48401D01F075FEEDE700000008014070
:101F2000001401404D49434C5F5069616F0000004F
:101F300044726F6E65205374617475733A000000CB
:101F4000576174696E6721004163746976617465D5
:101F50002053756363657373000000004163746907
:101F600076617465206572726F2020200000000089
:101F700034060020C80F00204F627461696E205340
:101F800075636365737320202020202020000000EB
:101F90004F627461696E206572726F72202020201A
:101FA0002020202020000000426567696E20746FA9
:101FB0002054616B65206F666620202000000000C1
:101FC00016000020704700BFFEE700BFFEE700BF1D
:101FD000FEE700BFFEE770477047704710B500F09E
:101FE00016FA10BD10B540F225513B48FFF7D4FD5D
:101FF00080B33948001D0088C4B2AA2C09D1A021A1
:10200000364802F051F80120354908703348047011
:102010001FE03148001D0088C1B2314802780078C5
:10202000401C2F4B18702D48815418460078042806
:102030000FDD2A4840782949897809B1012100E05B
:10204000002100EB012026490978884201D801F0DF
:102050005AFB00BF10BD10B502214807FFF705FC71
:10206000A0B102214807FFF711FC4FF08040FFF7B5
:10207000DDFB1C490880084600881B4A1288104472
:1020800081B24FF08040FFF7C1FB18E00421080740
:10209000FFF7EBFB98B104210807FFF7F7FB4FF0C0
:1020A0008040FFF7C6FB0F490880084600880F4AAA
:1020B0001288104481B24FF08040FFF7A9FB4FF027
:1020C0008040FFF7C0FB0749088000214FF08040A7
:1020D000FFF798FB10BD000000380140C80F00203A
:1020E00034060020220000202400002026000020CA
:1020F00008B501213C20FEF701FC4FF48070ADF8DB
:10210000000010208DF8030003208DF802006946BE
:10211000E648FEF75DF90420ADF8000010208DF8C8
:10212000030003208DF802006946E148FEF750F9EC
:1021300042F20200ADF8000048208DF803000320B1
:102140008DF802006946DB48FEF742F94FF48060E3
:10215000ADF8000004208DF803006946D348FEF76F
:1021600037F94FF40070ADF8000003208DF802003D
:1021700018208DF803006946CC48FEF729F908BD00
:1021800010B501210846FEF7ACFB01218803FEF7DC
:10219000B5FB01210846FEF7BEFB10BD08B50021C6
:1021A0004FF00060FEF776F84FF4E060FEF73AF883
:1021B00025208DF8000000208DF801008DF8020028
:1021C00001208DF803006846FEF731F81C208DF8D9
:1021D000000000208DF8010001208DF802008DF82C
:1021E00003006846FEF723F808BD00B587B04FF638
:1021F000FF70ADF814000020ADF81000ADF8160027
:10220000ADF8120004A94FF08040FEF7CAFD01228C
:1022100004210807FFF7F3F80020ADF800000120C3
:10222000ADF80200A4480088ADF806000020ADF823
:10223000080069464FF08040FEF7CCFD00214FF0CA
:102240008040FFF765F90120ADF802009B48008847
:10225000ADF8060069464FF08040FEF7F2FD002120
:102260004FF08040FFF75DF9012206219007FFF74C
:1022700039F801218807FFF71AF807B000BD00B54B
:1022800087B0012141F20400FEF738FBE020ADF8F1
:10229000040003208DF8060018208DF8070001A91E
:1022A0008248FEF795F81020ADF8040003208DF861
:1022B000060010208DF8070001A97C48FEF788F879
:1022C0000020ADF808004FF48270ADF80A0000203D
:1022D000ADF80C000220ADF80E000120ADF81000A2
:1022E0004002ADF812000020ADF81400ADF8160061
:1022F0000720ADF8180002A97148FEF793FB0121F1
:102300006F48FEF72CFC07B000BD00B587B0012177
:102310008803FEF700FB01210820FEF7EFFA4FF4D7
:102320006040ADF8040003208DF8060018208DF8F9
:10233000070001A96348FEF74BF84FF48050ADF851
:10234000040003208DF8060010208DF8070001A975
:102350005C48FEF73DF84FF480515A48FEF7E5F827
:102360000020ADF808004FF48270ADF80A0000209C
:10237000ADF80C000220ADF80E000120ADF8100001
:102380004002ADF812000020ADF81400ADF81600C0
:102390000720ADF8180002A94B48FEF743FB0121C6
:1023A0004948FEF7DCFB07B000BD30B54748006880
:1023B0004FF47A72B0FBF2F1B1F1807F00D31DE0EF
:1023C00021F07F40401E4FF0E022506150170F2255
:1023D000002807DA13071D0E3D4B00F00F04241FE1
:1023E0001D5503E013071C0E3A4B1C5400BF002080
:1023F0004FF0E02290610720106100BF30BD3649E8
:10240000086000BF344909680029FBD17047324891
:10241000006820B130480068401E2F4908607047AE
:102420000246002105E0491CB1F5FA6F01D90020F0
:1024300070472348008910F0020FF4D020488281B1
:10244000002105E0491CB1F5FA6F01D90020EFE742
:102450001B48008910F0010FF4D019488089C0B2E0
:10246000E6E70246002105E0491CB1F5FA6F01D903
:102470000020704714480830008810F0020FF3D095
:1024800011480C300280002105E0491CB1F5FA6FBB
:1024900001D90020EDE70C480830008810F0010F4A
:1024A000F3D009480C300088C0B2E2E700080140D0
:1024B00000140140001001402400002026000020EC
:1024C00000300140000C014000380040C8580008AE
:1024D00018ED00E000E400E02800002070B505469B
:1024E0000C4624B14021F948FEF71DF803E04021D5
:1024F000F648FEF71AF84FF48051F548FEF715F844
:102500002846FFF7AEFF4FF48051F148FEF70BF875
:102510004021EE48FEF707F870BD70B500241CE0BE
:1025200004F1B001C8B20021FFF7D8FF002102205A
:10253000FFF7D4FF00211020FFF7D0FF002508E0AF
:10254000E44901EBC501085D0121FFF7C7FF681CE5
:10255000C5B2802DF4DB601CC4B2082CE0DB70BD7A
:1025600010B500218D20FFF7B9FF00211420FFF7DF
:10257000B5FF0021AF20FFF7B1FF10BD10B500215E
:102580008D20FFF7ABFF00211020FFF7A7FF0021F0
:10259000AE20FFF7A3FF10BD70B500240CE00025AE
:1025A00006E00020CB4901EBC5010855681CC5B207
:1025B000802DF6DB601CC4B2082CF0DBFFF7ADFF0A
:1025C00070BD70B505460C462646E11704EB517107
:1025D000C910C1F1B701C8B20021FFF77FFF102178
:1025E00041EA15100021FFF779FF05F00F000021E7
:1025F000FFF774FF70BD2DE9F04705460C461746FE
:102600004FF0000921462846FFF7DBFF7F2D01DC54
:10261000402C01DDBDE8F0872046E11704EB517145
:10262000C910C1F10701CEB2E11704EB5171C91015
:10263000A4EBC10101F0FF08C8F1070101208840A7
:1026400000F0FF0957B1A34800EBC500805D40EAE8
:102650000900A04901EBC501885509E09D4800EB40
:10266000C500805D20EA09009A4901EBC501885543
:10267000984901EBC501885D0121FFF72FFF00BFDD
:10268000C8E72DE9F04706460F4690469946DDF823
:1026900020A034460CE03D4606E05246294620463E
:1026A000FFF7A9FF681CC5B24D45F6DD601CC4B23A
:1026B0004445F0DDFFF731FFBDE8F0872DE9F05F1D
:1026C00080460C4615461E46A346A5F12000C5B21D
:1026D00000273EE00C2E07D105EB45007E4901EBBB
:1026E000800010F8079004E07C4800EB051010F81B
:1026F00007904FF0000A26E019F0800F05D0214620
:1027000040460A9AFFF777FF09E00A9808B90120C6
:1027100000E00020024621464046FFF76CFF4FEAEA
:1027200049604FEA1069601CC4B2A4EB0B00B042D0
:1027300005D15C4608F1010000F0FF0806E00AF14F
:10274000010000F0FF0ABAF1080FD5DB00BF781CCA
:10275000C7B2B742BEDBBDE8F09F2DE9F05F064689
:102760000C461746A2464FF0010B002533E05C48AB
:1027700000EB471010F805804FF0000925E018F035
:10278000800F05D05A4621463046FFF734FF0AE055
:10279000BBF1000F01D1012000E0002002462146DC
:1027A0003046FFF728FF4FEA48604FEA1068601C88
:1027B000C4B2A4EB0A00102803D15446701CC6B260
:1027C00006E009F1010000F0FF09B9F1080FD6DBBE
:1027D00000BF681CC5B2202DC9DBBDE8F09F10B555
:1027E0000246012000E050430B00A1F10104E1B2D8
:1027F000F9D110BD2DE9FF4F81B0074691461E4625
:102800000E9D4FF0000A002439E0301B401EC1B27B
:102810000A20FFF7E4FFB9FBF0F00A21B0FBF1F268
:1028200001FB1208BAF1000F16D1701EA04213DD91
:10283000B8F1000F0ED10120AB4605EBDB7149105A
:1028400001FB04710090C8B22B4620220299FFF7C9
:1028500035FF12E04FF0010A0120AB4605EBDB71BA
:10286000491001FB04710090C8B208F13001CAB2EE
:102870002B460299FFF722FF00BF601CC4B2B4428E
:10288000C3DB05B0BDE8F08FF8B505460E4614462B
:1028900018E07F2D03DD002506F11000C6B23F2EA3
:1028A00004DD002005460646FFF776FE0120009075
:1028B0002278102331462846FFF700FF05F1080073
:1028C000C5B2641C20780028E3D1F8BD0010014097
:1028D000000C014068060020DC580008505D00082C
:1028E0004063000808B501211820FEF707F84020D2
:1028F000ADF8000010208DF8030003208DF80200D1
:1029000069463548FDF764FD0021AE20FFF7E6FD7E
:102910000021D520FFF7E2FD00215020FFF7DEFD6A
:102920000021A820FFF7DAFD00213F20FFF7D6FDA8
:102930000021D320FFF7D2FD00210846FFF7CEFD8E
:1029400000214020FFF7CAFD00218D20FFF7C6FDC2
:1029500000211420FFF7C2FD00212020FFF7BEFD5B
:1029600000210220FFF7BAFD0021A120FFF7B6FDEC
:102970000021C020FFF7B2FD0021DA20FFF7AEFDF5
:1029800000211220FFF7AAFD00218120FFF7A6FDFC
:102990000021EF20FFF7A2FD0021D920FFF79EFDC7
:1029A0000021F120FFF79AFD0021DB20FFF796FDC3
:1029B00000213020FFF792FD0021A420FFF78EFDBB
:1029C0000021A620FFF78AFD0021AF20FFF786FD3A
:1029D000FFF7E2FD08BD0000001001402DE9FE4FA9
:1029E00005460E4617469846DDE90CA91B4C04F82F
:1029F000017B04F8018B4A4651461848801C01F0BF
:102A00009AFABDF8000065F30100ADF8000009F185
:102A10000200019011480290BDF8000066F38200A8
:102A2000ADF80000684600F0D2FDBDE8FE8F1CB591
:102A300004460B4884700120094908700846407814
:102A4000401C487002210648401C01231A46CDE96B
:102A5000000119460220FFF7C1FF1CBD740A0020C7
:102A6000680A0020014611F0800F03D01B2080EA85
:102A7000410000E04800C0B27047102103E0425C12
:102A8000FA4B9A5C42540A00A1F10103D9B2F6D183
:102A90007047102103E0425CF54B9A5C42540A00F7
:102AA000A1F10103D9B2F6D1704710B5024610204A
:102AB00003E0135C0C5C634013540300A0F10104B9
:102AC000E0B2F6D110BD30B50346102008E00C5C32
:102AD00014541D5C6C401C5400F110040D5D155520
:102AE0000400A0F10105E8B2F1D130BD427843798C
:102AF0004370437A4371437B43724273827A837893
:102B000083728270C178C37BC370C37AC373C37985
:102B1000C372C171817B83798373817170474278FD
:102B2000437B4370437A43734379437242718278A3
:102B3000837A83708272C178C379C370C37AC37198
:102B4000C37BC372C1738179837B83718173704747
:102B50002DE9F0410346002234E09D5C501C1E5CD0
:102B6000901C1F5CD01C13F8008085EA060078409A
:102B700080EA080485EA0600FFF774FF6040995C6C
:102B80004840985486EA0700FFF76CFF6040511CEC
:102B9000595C4840511C585487EA0800FFF762FF0F
:102BA0006040911C595C4840911C585488EA0500CB
:102BB000FFF758FF6040D11C595C4840D11C585465
:102BC000101DC2B2102AC8DBBDE8F0812DE9F84F14
:102BD0000346002251E09C5C501C1D5C901C1E5C56
:102BE000D01C1F5C84EA0500704080EA070840465C
:102BF000FFF738FF83468BEA040181EA0600FFF7FE
:102C000031FF0090FFF72EFF80EA08098BEA0501EB
:102C100081EA0700FFF726FF0090FFF723FF80EA15
:102C2000080A84EA0500FFF71DFF80EA0900995CA5
:102C30004840985485EA0600FFF714FF80EA0A002E
:102C4000511C595C4840511C585486EA0700FFF754
:102C500009FF80EA0900911C595C4840911C5854B6
:102C600087EA0400FFF7FEFE80EA0A00D11C595CE7
:102C70004840D11C5854101DC2B2102AABDBBDE82D
:102C8000F88F30B50A46437F784CE35C1478634094
:102C90000478634003704378847F744D2C5D6340F7
:102CA00043708378C47F2C5D63408370C378047F56
:102CB0002C5D6340C3701378DB0903EBC30303EBA4
:102CC0004303147883EA4403137004211BE0435C3C
:102CD0000C1F045D634043544B1CC35CCC1E045D5D
:102CE00063404C1C03558B1CC35C8C1E045D63400D
:102CF0008C1C0355CB1CC35C4C1E045D6340CC1C78
:102D000003550B1DD9B21029E1DB037C047B574D21
:102D10002C5D63400374437C447B2C5D63404374AF
:102D2000837C847B2C5D63408374C37CC47B2C5D7B
:102D30006340C37414211BE0435C0C1F045D6340BB
:102D400043544B1CC35CCC1E045D63404C1C0355B8
:102D50008B1CC35C8C1E045D63408C1C0355CB1C18
:102D6000C35C4C1E045D6340CC1C03550B1DD9B2E3
:102D70002029E1DB30BD30B50A461C211BE0435C55
:102D80000C1F045D634043544B1CC35CCC1E045DAC
:102D900063404C1C03558B1CC35C8C1E045D63405C
:102DA0008C1C0355CB1CC35C4C1E045D6340CC1CC7
:102DB00003550B1FD9B21029E1DC037C047B2B4D9A
:102DC0002C5D63400374437C447B2C5D63404374FF
:102DD000837C847B2C5D63408374C37CC47B2C5DCB
:102DE0006340C3740C211BE0435C0C1F045D634013
:102DF00043544B1CC35CCC1E045D63404C1C035508
:102E00008B1CC35C8C1E045D63408C1C0355CB1C67
:102E1000C35C4C1E045D6340CC1C03550B1FD9B230
:102E20000029E1DC137813F0010F01D08D2300E0BD
:102E30000023147883EA64031370437F0B4CE35C34
:102E4000147863400478634003704378847F074DAF
:102E50002C5D634043708378C47F2C5D6340837036
:102E6000C378047F2C5D6340C37030BDA06400084C
:102E7000A065000878B505460E46012000900024A4
:102E800007E0315D05F14000015520380155601C17
:102E9000C4B2202CF5D3082404E0694605F14000B3
:102EA000FFF7EFFE601EC0B20400F6D178BD014608
:102EB000002008E0002301F140021354203A13548B
:102EC0000B54421CD0B22028F4D3704778B5044686
:102ED0000E46224604F120013046FFF7F4FD01259D
:102EE000012000901BE03046FFF7C7FD3046FFF79A
:102EF000FDFD3046FFF72CFE15F0010F05D004F163
:102F000010013046FFF7D1FD07E069462046FFF784
:102F1000B8FE21463046FFF7C8FD681CC5B20E2D2D
:102F2000E1DB3046FFF7A9FD3046FFF7DFFD6946DC
:102F30002046FFF7A6FE21463046FFF7B6FD78BDD6
:102F400078B504460D46224604F140012846FFF7B5
:102F5000BAFD2846FFF7E3FD2846FFF79AFD0E2647
:102F60008020009019E016F0010F09D06946204634
:102F7000FFF701FF04F110012846FFF796FD03E07B
:102F800021462846FFF791FD2846FFF71FFE2846F9
:102F9000FFF7C5FD2846FFF77CFD701EC0B2060096
:102FA000E1D121462846FFF780FD78BD30B5CBB290
:102FB00080EA0302D4B2FE4D35F8144084EA2020A2
:102FC00030BD30B5CBB280EA0302D4B2F94D55F82A
:102FD000244084EA102030BDF0B505460E4643F685
:102FE000A327002405E0295D3846FFF7DFFF0746E9
:102FF000641CB442F7D33846F0BDF0B505460E4622
:1030000043F6A327002405E0295D3846FFF7D9FFE2
:103010000746641CB442F7D33846F0BDE649086061
:1030200070472DE9F04104460F460B25A088461B4A
:10303000A01D81192A4600F0C3FFA11D4819314681
:1030400001F032F8A580BDE8F0812DE9F04F99B08C
:1030500080460C4615462079C0F3421010B919B0CD
:10306000BDE8F08F2068C0F309200C2800D1F6E7F6
:103070002068C0F30920102800D8F0E704F10C0BF9
:103080002068C0F30920A0F1100A4FEA1A1900279E
:1030900008F5997101A8FFF7EDFE002605E00BEB9E
:1030A000070101A8A8471037761C4E45F7D301A8A1
:1030B000FFF7FDFEAFF2771085420AD12068C0F31A
:1030C0000920217901F01F01411A206861F31120C4
:1030D000206000BFC3E770B50446A51DB648006870
:1030E00048B1AFF2A31229462046FFF7AEFFA01D5C
:1030F000B1490968884729462046FFF792FF70BD0D
:1031000010B50446A08848B1A088401EA080A088C1
:1031100020B1A288E11DA01D00F052FF10BD70B5C6
:1031200004460D46A088B0F5967F06DAA188A01D5A
:103130004554A088401CA08005E0A188A01D00F097
:10314000B3FF0020A08070BD2DE9F0470446A51D07
:10315000A0880C3886B205F10C082088801B87B245
:1031600005EB070932464146484600F029FF0C208E
:10317000A0802046FFF7C4FF27806088401C608045
:10318000BDE8F08770B50446A51D2868C0F3092185
:103190002846FFF732FF18B92046FFF79CFF02E0F0
:1031A0002046FFF7D1FF70BD70B50546AC1D2078F5
:1031B000AA281DD12068C0F38540C8B92068C0F393
:1031C0000920B0F5967F13DC2068800F10D160686D
:1031D000000A0DD10C212046FFF7FEFE40B9206801
:1031E000C0F309200C2806D12846FFF774FF02E03F
:1031F0002846FFF785FF70BD70B50446A51DA08861
:103200000C280FD3A0880C2803D12046FFF7CCFF51
:1032100008E0A0882968C1F30921884202D120462C
:10322000FFF7B0FF70BD70B504460D462946204635
:10323000FFF775FF2046FFF7DFFF70BD10B50446AE
:1032400000205E4948804FF49670088021465B4814
:10325000FFF7E9FF59484088A8B10CE057480188BA
:10326000801D445C801F0088401C54490880214612
:103270005248FFF7D8FF51480088B0F5967FEDDB44
:1032800000204E49488010BDF0B505462C462E461C
:103290002078AA2800D0F0BD2068C0F3854000B196
:1032A000F9E72068C0F30920B0F5967F00DDF2E76A
:1032B0002068C0F309200C2805D92068C0F3092034
:1032C000102800D2E7E70A213046FFF785FEA16803
:1032D00060F31F41A1602068C0F30920102808D3C3
:1032E0002068C0F30920071F39463046FFF785FEE6
:1032F000F05100BFCFE77CB504460E4600208DF8A4
:1033000006008DF805008DF8040000250EE02078F9
:103310008DF8040060788DF805006A4628A101A8A0
:1033200000F024FD00987055A41C6D1C202DEEDBD0
:103330007CBD70B504460D4604F599712846FFF72B
:10334000DAFF012084F8520170BD10B50446214611
:103350001A48FFF7EEFF10BD2DE9F05F07468846DB
:1033600015469A46DDE90A9B3C46B5F5806F02DDBD
:103370000020BDE8F09F15B1B8F1000F01D10C2677
:1033800002E005F1100086B2B9F1000F0AD028461C
:10339000E91705EB11710911A5EB0111C1F110013C
:1033A00031448EB2206820F0FF00AA30206009E08E
:1033B0002C0000202C0200202C060020740E00207F
:1033C00025780000206866F311202060206820F432
:1033D0007C00206020686BF31C602060BAF1000F55
:1033E00001D0012100E00021206861F35D702060C0
:1033F000206820F040402060B9F1000F09D0284635
:10340000E91705EB11710911A5EB0111C1F11001CB
:1034100000E00021626861F304026260B9F1000F0C
:1034200001D0012100E00021606861F34710606075
:10343000207960600C98A16860F30F01A160208979
:1034400080B2A060B8F1000F06D02DB12A464146E7
:1034500007F10C0000F06FFDAFF28F5221460448D7
:10346000FFF7F3FD3846FFF70FFF304681E7000016
:10347000740E002070B5044625462868C0F3092163
:10348000204600F054FC70BD10B50246002112E049
:1034900001EB4103ED4C04EB83035B784BB901EB8B
:1034A000410304EB830001234370436813448360AA
:1034B00003E04B1CD9B21E29EADB00BF10BD4178E6
:1034C000012901D1002141707047F0B50746002560
:1034D0000026002416E0DE4800EB04100078C0F35C
:1034E000401070B9DA4800EB0410006820F02000AA
:1034F0002030D74901EB04110860D54800EB0415D2
:1035000002E0641C1E2CE6DB00BF3846FFF7BCFF60
:1035100006460EB9002500E06E602846F0BD00B5F5
:1035200002461078C0F3401030B15068FFF7C7FF73
:10353000106820F02000106000BD002032E0811CE7
:10354000C34A02EB0012126861F30402C04901EBA6
:1035500000110A60BE4901EB0011096821F0200149
:10356000BB4A02EB001211604FF48031B84A02EB03
:103570000012916000EB4001B44A02F821000021E2
:1035800000EB4002B14B03EB8202517000EB4011A3
:10359000B04A02EB011100EB400203EB82025160E2
:1035A000411CC8B21E28CADBAB49096821F02001C2
:1035B000A94A11601146096821F01F01491C1160D8
:1035C000704710B504462046FFF7BFFE10BDFEB59C
:1035D0000446002600256068B0F5007F01D9681E0A
:1035E000FEBD207810F0030004D0012820D002286E
:1035F0001DD14BE09948008898490988491C974A91
:10360000118000222178C1F38001CDE900120290DF
:10361000A08882B200239248A168FFF79DFE06466B
:1036200016B94FF0FF30DBE78D48FFF723FF67E067
:103630008948806889490988884204D18748008878
:10364000401C8649088085480088834988608348F3
:10365000008882490988491C804A1180014601225C
:103660002078C0F38000CDE901210090A08882B2CB
:1036700000237B48A168FFF76FFE064616B94FF09E
:10368000FF30ADE77648FFF7F5FE39E0A18810314D
:1036900088B2FFF71AFF05468DB370490988A868FC
:1036A000884204D16D480088401C6C4908806B48F2
:1036B0000088A8606948008868490988491C674AE9
:1036C0001180297801F01F012278C2F38002CDE930
:1036D00000210290A3889AB2A1686B685868002301
:1036E000FFF73AFE06462EB92846FFF718FF4FF0BF
:1036F000FF3075E769684868FFF7BCFE002600BF29
:1037000000BF00206CE710B5ADF5816D0024554A6F
:1037100007CA03AB07C30398C0B2AA2802D00DF5AD
:10372000816D10BD0398C0F3854000B1F7E70398A1
:10373000C0F30920B0F5967F00DDF0E70398C0F3F1
:1037400009200C2805D90398C0F30920102800D2BD
:10375000E5E70A2103A8FFF73FFC0599B0EB114FFD
:1037600000D0DCE70398C0F30920001F3D4908445E
:1037700004680398C0F30920011F3A48FFF73DFC95
:10378000A04200D0CBE70398C0F3407080B3039809
:10379000C0F30460BDF8001060F30701ADF800103D
:1037A000059880B2ADF802000398C0F309201038E4
:1037B00001900498C0F34210BDF8001060F30F218F
:1037C000ADF80010BDF80000C0B202280ED1BDF85F
:1037D000020050B92349497B224A127B914088B2AA
:1037E00010B90121204A117000BF00BF00BF2AE0BC
:1037F000FFE71C48007B8DF818001A48407B8DF8C5
:1038000019000398C0F30920123880B2ADF80604FD
:10381000BDF8062413490E310DF11A0000F08BFBA0
:103820009DF8180010B102280CD100E00AE09DF8C4
:103830001900022805D14FF47C7206A90B4800F04C
:103840007AFB00BF00BF00BF69E7000068140020DA
:1038500088120020D01500206810002032060020B9
:1038600078100020C80F002030060020B053002040
:1038700010B5F048F04908600220486001208860D7
:103880002022EEA1EC480C3000F0DCFBF148F249BC
:10389000086008460068FFF794FEFFF74EFE10BD73
:1038A0001CB52C20E44901230022CDE9001011466B
:1038B0000220FFF793F84FF4FA70FEF7A0FDE748F7
:1038C00000781CBD3EB504460294012002A90023E5
:1038D0000246CDE900100146FFF780F84FF4FA7078
:1038E000FEF78DFDDE4800783EBD70B504462546E6
:1038F0002846FFF79CF870BD2DE9F04788B00446D4
:103900000D4616461F46DDE9109A142103A800F063
:10391000EDFB8DF80C40CDF80D60CDF81170CDF8B1
:103920001590CDF819A04FF0000810E0112003A960
:1039300003230122CDE9001000210846FFF74EF8CD
:103940000120FEF75CFD08F1010000F0FF08A8452A
:10395000ECD308B0BDE8F0871CB50020009003460A
:103960004FF08042642101904820FFF7C5FF4FF4DB
:10397000C870FEF744FD002000904FF080430246DF
:10398000642101904820FFF7B7FF4FF4C870FEF79D
:1039900036FD0020009003464FF040426421019024
:1039A0004820FFF7A9FF4FF4C870FEF728FD00205C
:1039B00000904FF040430246642101904820FFF7F9
:1039C0009BFF4FF4C870FEF71AFD00204FF08041B6
:1039D00003460246CDE9001064214820FFF78CFF22
:1039E0004FF4C870FEF70BFD0020009003464FF027
:1039F0008042642101904820FFF77EFF4FF4C87099
:103A0000FEF7FDFC00204FF0404103460246CDE9A1
:103A1000001064214820FFF76FFF4FF4C870FEF7D5
:103A2000EEFC00204FF0804103460246CDE9001035
:103A300064214820FFF760FF4FF4C870FEF7DFFCF9
:103A4000002000904FF080430246642101904820FE
:103A5000FFF752FF4FF4C870FEF7D1FC00204FF083
:103A6000404103460246CDE9001064214820FFF79B
:103A700043FF4FF4C870FEF7C2FC00204FF08041B6
:103A800003460246CDE9001064214820FFF734FFC9
:103A90004FF4C870FEF7B3FC0020009003464FF0CF
:103AA0004042642101904820FFF726FF4FF4C87080
:103AB000FEF7A5FC00204FF0404103460246CDE949
:103AC000001064214820FFF717FF4FF4C870FEF77D
:103AD00096FC00204FF0804103460246CDE90010DD
:103AE00064214820FFF708FF4FF4C870FEF787FCF9
:103AF000002000904FF0404302466421019048208E
:103B0000FFF7FAFE4FF4C870FEF779FC1CBD2DE9F3
:103B1000F04788B0142102A800F0E8FA4FF0000A3C
:103B200043E050208DF80800504601F047FC8046E5
:103B30004C4A4D4B01F056FC064601F0FBF804469A
:103B400000224A4B01F04EFCCDE9000101F0B6F92C
:103B5000CDF80900504601F031FC0646414A424B7F
:103B600001F040FC044601F03BF9804600223F4B47
:103B700001F038FCCDE9000101F0A0F9CDF80D000D
:103B80003B48CDF811000020CDF81500112002A906
:103B900003230122CDE9001000210846FEF71EFF95
:103BA0000120FEF72CFC0AF1010A40F6B8308245EC
:103BB000B7D308B0BDE8F08730B59BB004466421A8
:103BC00002A800F093FA204600F096F905462A462E
:103BD000214602A800F0AFF9204600F08DF902A9B5
:103BE00000220A5402A800F087F9451C02A8FE230F
:103BF00000221146CDE900051046FEF7EFFE1BB08E
:103C000030BD30B59BB005460C46642102A800F0DB
:103C10006DFA2246294602A800F08DF902A8FE237B
:103C200000221146CDE900041046FEF7D7FE1BB076
:103C300030BD0000E0970F003806002031323334E9
:103C40003536373839303132333435363738393024
:103C500031320000A466000864060020300600200F
:103C600031060020C3718BB665BC793F0000F03F80
:103C700000002041014600BF704700BF384A12884B
:103C800012F0400FFAD0C2B2354B1B1D1A8070479C
:103C900010B586B00446012144F20400FCF72EFE64
:103CA0002F48FDF7F7FD4FF40070ADF81400032026
:103CB0008DF8160018208DF8170005A92948FCF783
:103CC00087FB4FF48060ADF8140004208DF81700D6
:103CD00005A92448FCF77CFB25208DF80000032073
:103CE0008DF801008DF8020001208DF80300684670
:103CF000FCF79DFA01940020ADF80800ADF80A0029
:103D0000ADF80C00ADF810000C20ADF80E0001A9C4
:103D10001348FDF708FE012240F225511048FDF737
:103D20007CFE01210E48FDF76CFE06B010BD70B59B
:103D300004460D4640210A48FDF722FF00260CE00C
:103D400014F8011B0648FDF7C4FE00BF40210448DB
:103D5000FDF716FF0128F9D1761CAE42F0DB70BDED
:103D60000038014000080140704700000FB400B562
:103D70008DB010A9099000910B904FF0FF300A9080
:103D800000200C90064878440690064878446A461D
:103D900007900F9909A800F0F3F90DB05DF814FB36
:103DA000170400002F0400002DE9FF5F1D464FF0AF
:103DB000FF3B91464FF000085F46D5E90146A969EF
:103DC00001987F1C8847296A824688470028F6D1D7
:103DD0001AF101000CD0002E24F4C06419DD600635
:103DE00014D5BAF12B0F09D0BAF12D0F0ED103E083
:103DF000584604B0BDE8F09F44F48064A969019876
:103E00007F1C8847761E8246002E02DDBAF1300FF5
:103E100003D0B9F1000F26D032E0A969761E0198CF
:103E20007F1C44F400748847002E824605DDBAF1F9
:103E3000780F06D0BAF1580F03D0B9F1000F10D0A7
:103E40001EE0B9F1000F02D0B9F1100F18D1A96925
:103E5000761E01987F1C24F4007488478246102047
:103E600002E0082000E00A20814609E0A96908FB79
:103E70000908761E01987F1C44F400748847824626
:103E8000002E05DD4946504600F066F90028EDDABF
:103E9000E96901988847A00502D46FF00100A8E7FE
:103EA000E00727D1600614D5600502D5C8F10000EF
:103EB00000E04046296801F104022A6009682205F1
:103EC00001D5087016E0220701D5088012E00860CD
:103ED00010E0286800F1040129600068210502D57E
:103EE00080F8008006E0210702D5A0F8008001E0FC
:103EF000C0F8008038467CE710B5431C02E010F89B
:103F0000011B71B18107FAD14FF0013202C88C1A3E
:103F10008C4314EAC211F9D0C01A0A0603D0C01E9D
:103F200010BDC01A10BD0A0401D0801E10BD0902C8
:103F3000FCD0401E10BD032A40F2308010F0030C6C
:103F400000F0158011F8013BBCF1020F624498BFEC
:103F500011F801CB00F8013B38BF11F8013BA2F189
:103F6000040298BF00F801CB38BF00F8013B11F004
:103F7000030300F06780083AC0F0088051F8043B62
:103F8000083A51F804CBA0E80810F5E7121D5CBF11
:103F900051F8043B40F8043BAFF30080D20724BF44
:103FA00011F8013B11F801CB48BF11F8012B24BFD8
:103FB00000F8013B00F801CB48BF00F8012B704727
:103FC000431A28BF9A427FF6B6AF032A1044114421
:103FD00040F2268010F0030F1EBF11F8013D521E63
:103FE00000F8013D10F0030F7FF4F6AF11F003036A
:103FF00000F00981083AC0F00B8051F8043D083AFE
:1040000051F804CD40F8043D40F804CDFFF7F3BF6C
:10401000121D5CBF51F8043D40F8043DAFF3008031
:10402000D20724BF11F8013D11F801CD48BF11F8A6
:10403000012C24BF00F8013D00F801CD48BF00F875
:10404000012C704710B5203AC0F00B80B1E8185031
:10405000203AA0E81850B1E81850A0E81850BFF472
:10406000F5AF5FEA027C24BFB1E81850A0E8185011
:1040700044BF18C918C0BDE810405FEA827C24BF65
:1040800051F8043B40F8043B08BF7047D20728BFF3
:1040900031F8023B48BF11F8012B28BF20F8023B42
:1040A00048BF00F8012B70474FF000020429C0F010
:1040B000128010F0030C00F01B80CCF1040CBCF15A
:1040C000020F18BF00F8012BA8BF20F8022BA1EBAC
:1040D0000C0100F00DB85FEAC17C24BF00F8012B91
:1040E00000F8012B48BF00F8012B70474FF0000289
:1040F00000B5134694469646203922BFA0E80C50DE
:10410000A0E80C50B1F12001BFF4F7AF090728BFB8
:10411000A0E80C5048BF0CC05DF804EB890028BF34
:1041200040F8042B08BF704748BF20F8022B11F05D
:10413000804F18BF00F8012B7047704770477047D9
:10414000704710B500F08AF8006810BD10B504463D
:1041500000F084F8046010BD3A2800D2303820F016
:104160002002412A01D3A2F13700884201D34FF047
:10417000FF30704702681144137801601846704799
:10418000D1600549794451610449794411620021A3
:104190001161114600F070B8EDFFFFFFD70000007D
:1041A000426842B1016811F8013B23B1521EC0E9D7
:1041B0000012184670470121C160881E704742688E
:1041C0005AB1C368016843B983688B4205D0491E60
:1041D000521CC0E90012002070474FF0FF307047BA
:1041E000431A28BF9A427FF62DAF104410F0030FF8
:1041F00011441EBF11F8013D521E00F8013D10F0A0
:10420000030F7FF4F6AF103AC0F00A8010B531E921
:104210001850103A20E91850BFF4F9AFBDE810402B
:10422000530724BF31E9081020E9081044BF51F8B2
:10423000043D40F8043D12F0030F08BF7047D20759
:1042400028BF31F8023D48BF11F8012C28BF20F8E3
:10425000023D48BF00F8012C70470000004870473D
:10426000A057002010B5044600F0E8F90068005D92
:1042700000F0010010BD00002DE9F34F4FF0000ADF
:104280000C4656468DB001200C9001F10C000B90AD
:1042900062690B980121904705002DD0252D2CD067
:1042A000216A8847C0B162690B9801219047216A51
:1042B00088470028F7D16269411E0B98904700E0BB
:1042C000761CA1690D988847216A88470028F7D194
:1042D000E1690D988847DBE7A1690D988847A842F6
:1042E000074601D1761CD3E7E1690D9888477F1C0A
:1042F00002D1BAF1000F6FD06AE162690B98002712
:104300003D46394690472A2804D162690B9801211D
:1043100090470125DFF8CC8262690B980121904714
:10432000A0F130010A290AD24745E5DC07EB8701F5
:1043300000EB4107303FDFD445F01005ECE7E9061C
:1043400001D46FF000476C280AD04C2814D068289C
:1043500015D06A280DD074281CD07A281AD01DE0F8
:1043600062690B98012190476C2802D045F0040542
:1043700014E045F002050DE045F020050AE0626911
:104380000B9801219047682802D045F0080505E008
:1043900045F4006562690B9801219047C4E9015713
:1043A00065283DD019DC582879D00CDC452837D059
:1043B00004DC252826D041289ED131E046282FD084
:1043C000472899D12CE05B287FD0612828D063282A
:1043D0007BD0642890D159E0F5E06F2847D008DC05
:1043E00066281DD067281BD0692821D06E2816D1D9
:1043F00027E0702844D0732867D0752846D07828E5
:104400000DD14CE0A1690D988847252805463FF459
:1044100069AFE1690D9888476D1C3FF46AAFD7E03A
:104420000D9923466A466FF00100AFF30080C4E0A7
:1044300045F0400023464FF000026060A80735D4E5
:104440003DE0206800F1040121600068290501D5E4
:1044500006701DE7290701D5068019E7A90704D5CD
:104460004FEAE671C0E9006112E7066010E745F027
:10447000400023464FF008026060A80716D41EE0F3
:1044800040F60E0125EA0100606016E045F04000AC
:1044900023464FF00A026060A80707D40FE045F0FA
:1044A00040006060A80708D5234610220D996FF0E0
:1044B0000100AFF3008080E007E0102223460D9951
:1044C0006FF00100FFF770FC77E04FF00009632800
:1044D0004F46C8464B46CB4602D05B2806D038E054
:1044E000E80601D40120A060012732E06269D4F817
:1044F0000CB00B98012190475E2807D14FF00109BD
:1045000049466269D4F80CB00B989047216939B9D3
:1045100000210B4603AA42F82130491C0829FADB86
:10452000D8B3216949B308F1010862690B980121E8
:1045300090475D28F4D1B9F1000F09D0002003A9FC
:1045400051F82020D24341F82020401C0828F7DBF6
:1045500003AB2069002820794FEA40701ED05B46EB
:104560002246CDF80080CDE901970D9900286FF023
:10457000010020DAAFF300801FE0C11700EBD16229
:1045800003A9531122F01F0201EB8301821A0B6869
:104590000120904003430B60C7E719E00D992246C4
:1045A00000286FF00100009702DAAFF3008004E00A
:1045B000AFF3008001E0AFF3008000280ADA401C6E
:1045C00006D10C9820B14FF0FF300FB0BDE8F08F4E
:1045D0005046FAE7E90701D10AF1010A0644002032
:1045E0000C9055E6CCCCCC0C00487047A05700206E
:1045F0007546FFF7F9FFAE4605006946534620F0C1
:104600000700854618B020B5FDF70EFBBDE8204039
:104610004FF000064FF000074FF000084FF0000B7E
:1046200021F00701AC46ACE8C009ACE8C009ACE831
:10463000C009ACE8C0098D467047000010B500F015
:104640000BF8001D10BD00BF490800000446AFF381
:1046500000802046FBF7E0FD00487047C05700206F
:104660004FF0013C50F8042B51F8043B9A4221D101
:10467000A2EB0C03934313EACC1317D150F8042B8D
:1046800051F8043B9A4215D1A2EB0C03934313EA71
:10469000CC130BD150F8042B51F8043B9A4209D1AA
:1046A000A2EB0C03934313EACC13DBD04FF00000D2
:1046B000704700BFD01A01BAB1FA81F101F01801B8
:1046C00022FA01F0CB40C1F12001DBB2C0B2C01A26
:1046D0002CFA01F3D11A914311EAC311E6D17047C4
:1046E000490050EAC12018BF04204A0D18BF40F00D
:1046F000010040F2FF72B2EB515F08BF40F00200D0
:10470000012808BF052070472DE9F74F144696B0E1
:104710000021C4E902111799089121F00045CA4906
:104720008D4206DC1799C4E9000119B00020BDE8EC
:10473000F08FC649DFF818A3A9423CDD0899C54EA1
:104740000029C54FC54A1799534619DD00F054FF9B
:10475000554506D0C24AC34B00F04EFFC4E90001E4
:104760000AE04FF0D352BF4B00F046FF32463B46C3
:1047700000F042FFC4E9000119B00120BDE8F08F4C
:1047800000F0CEFB554506D0B54AB64B00F0C8FB4D
:10479000C4E900010AE04FF0D352B24B00F0C0FB75
:1047A00032463B4600F0BCFBC4E9000119B04FF0B3
:1047B000FF30BDE8F08FAC49A942179978DB21F0B2
:1047C00000488346A94AAA4B414600F00BFE00224E
:1047D000A84B00F0A5FB00F0ABFD099000F0D7FD61
:1047E00006460F469D4A534600F0FCFD5A46434696
:1047F00000F0F6FE80468A46994A9A4B3046394682
:1048000000F0F0FD2A0D01250B924246534600F0C0
:10481000E7FE032DC4E9000139D00B98C1F30A511A
:10482000401A05EB45111139814230DA9248C346EE
:10483000784400EB0510CDF81CA00C90D0E90023C3
:104840003046394600F0CEFDCDE9020102460B4666
:104850005846079900F0D0FE80468A4602460B462D
:104860005846079900F0C8FEDDE9022300F0C4FEB7
:1048700083460C9803913946D0E90223304600F074
:10488000B1FD5A46039B00F0B7FE6D1CBDE70898CA
:104890000028A2BF099819B0BDE8F08F616881F0C7
:1048A00000416160099819B04042BDE8F08FFFE710
:1048B000C1F3130141F480110E911799C1F30A510C
:1048C000A1F2F532511102F01F08C8F12002129234
:1048D00000220C920D92694A7A4402EB810101F1A7
:1048E000140C0DA95FF00607DCF80020DCF804507A
:1048F00002FA08F3129AD1F800A025FA02F21A433C
:104900000E9BA2FB0356A2FB00329A4415449A4523
:1049100034BF4FF0010B4FF0000B51F8043C05EB96
:104920000B0E7344954234BF012200221644BBF1A2
:10493000000F02D0AB4202D903E0AB4201D2012208
:1049400000E000223244C1F800A041E90223091F1F
:10495000ACF1040C7F1EC7D10898DDE90A6500F1AF
:104960000050800F11900898099F800000F00FFD03
:1049700080468A46384600F021FD6FF01D0200F0A7
:104980005CFF07463046059100F018FD6FF03D02D0
:1049900000F053FFCDE90310284600F00FFD6FF043
:1049A0005D0200F04AFF064602460B460191DDE932
:1049B000031000F0B5FA3A46059B00F0B1FA424602
:1049C000534600F0ADFA00200D468346424653465A
:1049D00000F012FE3A46059B00F00EFEDDE90332C0
:1049E00000F00AFE3246019B00F0FAFDDFF89480E9
:1049F000234A434600F0F6FC06460F46224A234B64
:104A00005846294600F0EEFC32463B4600F088FA54
:104A10000F4606464FF0A84243465846294600F046
:104A2000E1FC32463B4600F07BFA179A12F0004F49
:104A300004D0119A81F0004152421192C4E9000160
:104A4000119819B0BDE8F08FFB21E93F7CD90240F5
:104A5000FB21F93F7370032E8A19A33B00004054D9
:104A60003163621A61B4D03DFB21394183C8C96DFD
:104A7000305FE43F0000E03FE41E00006C1E0000D9
:104A8000182D4454FB21F93D3326A611460B113C49
:104A90002DE9FF4D21F0004807460C46B8F1795F3B
:104AA00008DA00F045FC002801BF0020324904B0BC
:104AB000BDE8F08D3A4623461046194600F092FCB8
:104AC000054602462D480E460B460621784400F066
:104AD0005DF82A46334600F085FCDDE90223824674
:104AE0008B463846214600F07DFC04460F46524670
:104AF0005B462846314600F075FC22463B4600F0F6
:104B00007BFD07468A464FF0FF322846314600F0CB
:104B100094FE1B4A90450ADA3A46534600F06CFD73
:104B200004B00022BDE8F04D134B00F059BD154A0A
:104B30004245A8BFA8F500154FF00004B8BF124DBC
:104B400022462B4600F058FD0646884622462B4654
:104B50000020094900F050FD04460D463A465346F0
:104B60003046414600F048FD04B022462B46BDE8E1
:104B7000F04D00F035BD00000000F03F181C0000B3
:104B80003333D33F0000E93F0000D23F2DE9F0412D
:104B90004F1E00EBC7010446D1E9000115461E4631
:104BA00037F006020DD02A46334600F01BFC7F1E6C
:104BB00004EBC703D3E9002300F0B2F937F0060293
:104BC000F1D1022F25D0042F13D0062F18BFBDE836
:104BD000F0812A46334600F005FCD4E90A2300F0B0
:104BE0009FF92A46334600F0FDFBD4E9082300F084
:104BF00097F92A46334600F0F5FBD4E9062300F086
:104C00008FF92A46334600F0EDFBD4E9042300F087
:104C100087F92A46334600F0E5FBD4E9022300F089
:104C20007FF92A46334600F0DDFBD4E90023BDE8D6
:104C3000F04100F075B900002DE9FF4D054621F067
:104C4000004084B00C46B0F1795F0BDA2846FFF7DC
:104C500047FD042808BF00F065F8284608B0214643
:104C6000BDE8F08D2A460B46104600F0BBFB064619
:104C70000F462A46234600F0B5FB804626488A4662
:104C800032463B4605217844FFF780FF8346109863
:104C9000029160B3214A224B4046514600F0A2FBEC
:104CA000CDE900015A4640465146029B00F09AFB6E
:104CB00082468846DDE906014FF0FF3200F0BDFD77
:104CC0005246434600F098FC32463B4600F08AFBD1
:104CD000DDE9062300F090FCDDE9002300F08CFC08
:104CE00008B02A462346BDE8F04D00F079BC0B46DB
:104CF0005A463046394600F075FB084A084B00F02A
:104D00000FF94246534600F06DFB08B02A46234691
:104D1000BDE8F04D00F004B9561B0000495555554B
:104D20005555C5BF024A0020110700F086BD00009E
:104D300001FDFFFF00B5284B21F0004287B09A42E9
:104D4000DCBF0022134631DD244B9A420DD168B9F5
:104D50004FF00100FFF7FAF9002207B013461046A2
:104D600011465DF804EB00F08BB906DB07B04FF09D
:104D700001025DF804EB00F060BD02AAFFF7C4FC7D
:104D800010F0030104BF0DF1080CBCE80F000DD0BA
:104D9000012001290ED0022914D00DF1080C009039
:104DA000BCE80F00FFF748FF07B000BDFFF770FE3B
:104DB00007B000BD0DF1080C0090BCE80F00FFF734
:104DC0003BFF05E00DF1080CBCE80F00FFF760FEAB
:104DD00007B081F0004100BDFB21E93F0000F07FFA
:104DE00000B5294B21F0004287B09A4203DC002233
:104DF0001346009233E0254B9A420DD168B94FF02B
:104E00000100FFF7A3F9002207B013461046114630
:104E10005DF804EB00F034B906DB07B04FF0010297
:104E20005DF804EB00F009BD02AAFFF76DFC10F07D
:104E300003014FF001000DD0012914D002291AD02E
:104E40000DF1080CBCE80F00FFF722FE07B081F05F
:104E5000004100BD0DF1080C0090BCE80F00FFF709
:104E6000EBFE07B000BD0DF1080CBCE80F00FFF72A
:104E70000FFE07B000BD0DF1080C0090BCE80F005C
:104E8000FFF7DAFEE2E70000FB21E93F0000F07FD8
:104E900010B500290AD00878002807D005487844C2
:104EA000FFF7DEFB002801D0002010BD0248784447
:104EB00010BD00008A1900008219000021F0004294
:104EC000A2F16052B2F5801F01F0004328BFD2F179
:104ED0007F6C0BD95FEA001C43EAC20242EB5070C0
:104EE00018BF704728BF20F001007047B2F5801F3F
:104EF000BCBF184670474FEA410C1CF5001F02D298
:104F0000084600F063BC70B500F016FB0000008995
:104F1000FFF7F6BF4FF00040A0F58000704700009B
:104F200010B591EA030F48BF83F0004300F16C8392
:104F3000841A71EB030C05D2121943EB0C03001B0E
:104F400061EB0C01DFF824E14FEA1154A4EB135C90
:104F50001EEA430F18BF9EEA445F73D023EA0E0394
:104F6000DCF1200E21EA045143F4801332D322FAFB
:104F70000CFE10EB0E0023FA0CFE41EB0E01CCF1FF
:104F8000200E03FA0EFE10EB0E0051F10001B1F5F8
:104F9000801FCCF1200E32D201EB045112FA0EF236
:104FA000BDE8104058BF7047401C38BF5FEA42025E
:104FB00018BF7047002814BF20F0010041F1000124
:104FC0004FEA410313F5001F38BF7047A1F1C041FC
:104FD00000F000BB012A43EB0302ACF1200CDCF132
:104FE0001F0E32BF4FF0000E23FA0CF310EB03003C
:104FF00041EB0451B4EB115FD0D0A1EB045101F5AA
:10500000801149085FEA300001EB04510ED350F1E2
:10501000000038BF12FA0EFE08D1BDE81040C9E703
:10502000401C38BF5FEA4202CAD1C3E7BDE8104066
:105030004FEA410313F5001F38BF7047A1F1C0418B
:1050400000F0C8BA9EEA445F08D011EA5E0FBDE8DE
:10505000104004BF01F0004100207047BDE810403F
:1050600070B500F069FA00BF64FBBE3E0000E0FFCF
:1050700002494FF0000000F0AEBB00BF0000F87F17
:105080002DE9C04130B4DFF8A0C23CEA111418BFCA
:105090003CEA131400F0EC8081EA03051CEA1114C9
:1050A00044EAD57418BF1CEA131500F0C780A4EBBE
:1050B00005044FF0004545EAC12145EAC32341EA12
:1050C000505143EA525304F17F74994204F500347D
:1050D0004FEAC0204FEAC22208BF904200F09C80F5
:1050E0004FEA13650FF24016765D4FEA134506FB53
:1050F00005F7C7F1807706FB07F74FEAD737A7FB1D
:1051000003687642C8F58038A7FB06CE38BFA8F101
:10511000010807FB08E64FF0000EA6FB028CE6FB39
:1051200003CEDCF1000CCEF1004E38BFAEF1010E23
:10513000A6FB0C584FF000074FF00005E6FB0E876A
:10514000A1FB08C6A0FB07CE16EB0E0645F1000535
:10515000E1FB076515F1E04E7EBFA4F580345FEA00
:1051600046066D4116F1800745F100054FEA172705
:105170004FEA066647EA0567A6F1DE46B6F1805FAC
:105180004FEA15251FD9384624F0010C05EBC471F0
:10519000BCF1FE6F01EB0C1102D8F0BCBDE8008140
:1051A00024425CBF01F5801E9EEAC47F02D4F0BC9D
:1051B000BDE80081244238D4F0BCA1F1C041BDE873
:1051C000004100F007BA4FEAD22242EA43524FEAC6
:1051D000D323A7FB02864FEAD02040EA415007FBC9
:1051E00003661EEA0E0F4FEAD12105FB026658BF87
:1051F000A6EB0056B6EB00564FEA520E4EEAC37EBF
:1052000018EB0E0E56EB530EBDD518EB02085E419F
:105210007F1C55F10005B6E74FF480154FF00007ED
:105220004FF000064FF00008ADE7F0BC4FF0000073
:1052300001F1C04101F00041BDE8008111EA0C1FFD
:105240000CEA131500D00CE013EA0C1F00F02580C7
:105250004FF00000F0BC81EA030101F00041BDE81D
:105260000081F0BCBDE8004181EA030100F0B2B961
:10527000F0BCBDE8004170B500F05EF9097EFC3E6F
:1052800000F007B881EA03014FF0000001F000418F
:10529000704781EA030100F09DB9F0BCBDE8004110
:1052A0004FF0000021497047FFFDFBF9F7F5F4F2DC
:1052B000F0EEEDEBE9E8E6E4E3E1E0DEDDDBDAD8B1
:1052C000D7D5D4D3D1D0CFCDCCCBCAC8C7C6C5C40F
:1052D000C2C1C0BFBEBDBCBBBAB9B8B7B6B5B4B326
:1052E000B2B1B0AFAEADACABAAA9A8A8A7A6A5A411
:1052F000A3A3A2A1A09F9F9E9D9C9C9B9A999998D5
:105300009797969595949393929191908F8F8E8E77
:105310008D8C8C8B8B8A8989888887878685858404
:1053200084838382828181800000FF070000F87FF0
:105330004FEA41034FEA5353A3F58063D3F11E03B1
:10534000C8BFD3F1210C0CDD4FF0004242EAC1226C
:1053500042EA505232FA03FC8CEAE17CACEBE17099
:105360007047102BC4BF0020704703F5787CBCF158
:10537000FF3F04D06FF0004282EA2100704770B511
:1053800000F0DAF84992248000207047F2E710F02C
:10539000004248BF4042B0FA80F310FA03F10AD04D
:1053A000C3F11D0303F580634FEA415002EB035242
:1053B00002EBD12170474FF000007047B0FA80F344
:1053C00010FA03F10AD0C3F11D0303F580634FEA1D
:1053D00041504FEA035202EBD12170474FF00000D9
:1053E00070470000DFF848C170B51CEA111E1EBFEF
:1053F0001CEA13159EEA0C0F95EA0C0F00F06F8063
:1054000081EA030423EA4C134EEAD47E21EA4C11CC
:1054100041F4801143F48013AE44A1FB024CA0FB85
:105420000365AEF17F7E361955EB0C05A1FB034CED
:105430004CF10003A0FB021C16EB0C06654153F176
:105440000003094218BF46F0010613F4007F0BD198
:105450004FEA03314FEA0530340341EA155140EA7F
:1054600016506FF003020AE04FEAC3214FEAC5204D
:10547000F40241EA555140EA56506FF0020202EB45
:105480002E4201EB025585EACE710AD05FEA440C48
:1054900018BF24F0004450F1000041F1000120EA5F
:1054A000D47040F2FE7C624500D270BDA84214BFA9
:1054B0004FF080444FF04044002E08BF0024BEF15E
:1054C000806FA8BFA1F1C041BDE8704080F282802A
:1054D0004FF0000001F1C04101F0004170479EEA29
:1054E0000C0F0CEA131518BF95EA0C0F06D04FF0FD
:1054F000000081EA030E0EF0004170BD00F01CF8C0
:105500008900013E00F007B800F009B84FEA430CEB
:105510005FEA5C5C08D081EA030100F05BB84FEA07
:10552000410C5FEA5C5CF6D14FF000000149704726
:105530000000FF070000F87F0EF1020E2EF0030EB0
:105540005EF8046B364205D4012A43EB030515F5DA
:10555000001F12D8012841EB010C1CF5001F0CD8CC
:105560000ED14FEAD17C15F5001F0CEB4C0C0CF161
:10557000020C08BF4CEBD37C04E04FF0080C01E0B8
:105580004FEAD37C0CEB4C0526FA05F606F007062D
:10559000B6F1040C06D20EEB860CBDE870404CF060
:1055A000010C6047DFE80CF0090B02024FF00041EC
:1055B0004FF00000A1F5002170BD194610460128EA
:1055C00051EB010418BFD4F5001484BF002001F092
:1055D000004170BD0808A0F500114FEA3101704785
:1055E00091EA030F10B581F000413FF5A1AC83F0C3
:1055F000004300F009B8000010B591EA030F48BF5E
:1056000083F000433FF594AC841A71EB030C07D28E
:1056100012198CF0004C43EB0C03001B61EB0C01E6
:10562000DFF8A4E14FEA1154A4EB135C1EEA430F28
:1056300018BF9EEA445F00F0B08023EA6E03524236
:1056400021EA0451C3EB6E0338BF5B1EDCF1200E70
:1056500025D322FA0CFE10EB0E0043FA0CFE41EBB0
:105660000E01CCF1200E03FA0EFE10EB0E0051F1EC
:105670000001CCF1200E29D412FA0EF201EB0451F4
:10568000BDE8104058BF7047401C1CBFB2F1004F2E
:10569000704700280CBF491C20F00100704712EB36
:1056A000020E43EB030218BF4FF0010E4EEA420216
:1056B000ACF1200CDCF11E0E54D943FA0CFE10EBB9
:1056C0000E0051F1FF31CCF11E0ED5D50EF1010EB9
:1056D00012FA0EFE404141EB010101EB445C5FEA2E
:1056E0005C5C10D910EBDE7001EB045138BFBEF1E9
:1056F000004FBDE8104018BF704700280CBF491C80
:1057000020F00100704730D24FEAD42C11F500117F
:1057100024F400641BD0B1FA81F20B3AA41AA41E3F
:10572000D2F12003914030FA03F31943904001EB8A
:10573000CC71002C01EB0451BDE81040A8BF7047AC
:1057400001F1C0414FF0000001F000417047B0FA94
:1057500080F310FA03F100D110BDE41A173C48059C
:10576000C90AE4E701EB045110BD491001EB0451F3
:10577000BDE810404FEA300002E04FF000017047F2
:105780004A0008BF0042F8D0B2F5001F28BF70479A
:1057900001F000414FF0000070479EEA445F07D0DF
:1057A00011EA5E0FBDE8104004BF002100207047E1
:1057B000BDE8104070B5FFF7BFFE00BF40DFF63E0A
:1057C00083F00041104670470000E0FFFF2141EAEE
:1057D000D050C00570470CF00F03092B08BF0820FC
:1057E00000F059800A2B0BD0082B18BF704708BF58
:1057F0001CF0400F0AD04FF000004FF0000170473E
:105800001CF0400F18BF4FF0004070471CF0100F05
:1058100008D020F0704300F07F4242EAD3014FEA03
:105820004370704700F0604021F07F4242EA00027E
:1058300001F07F4040EA727070474FF0FF0C4CF46B
:10584000E06C1CEA11531CBF9CEA030C9445C2BFD8
:10585000DA4201EB02517047002B0DD0BCF1000F72
:105860000FD0002A01F00041A4BF41F0E04141F017
:105870007F614FF00000704701F000414FF00000E1
:10588000704750EA01334FF09B0C18BF4CF0806C0E
:105890007FF4EEAB70471CF4801F11D01CF4E02F96
:1058A00003D06FEACC31490070474FF04050EFF31E
:1058B000008222F0704242EA000282F300887047C0
:1058C0004FF000007047000000A24A0400A24A0402
:1058D00000A24A040051250200A24A040000000070
:1058E0000000000000000000000000003F40000039
:1058F00000000000000030004000300040000000C8
:1059000009000BC03D000BC03D00090018C0244039
:105910007FE0224031800000180024C01B000D8071
:105920003240018003801C4027401C80074000401B
:1059300010006000000000000000000000000000F7
:1059400000001F80204040200000402020401F8099
:1059500000000000090006001F800600090000008A
:10596000040004003F8004000400000000100060F8
:105970000000000000000000040004000400040017
:1059800004000000000000400000000000000000D3
:10599000002001C006003800400000001F802040A9
:1059A000204020401F800000000010403FC0004009
:1059B0000000000018C02140224024401840000090
:1059C00010802040244024401B80000002000D0075
:1059D00011003FC0014000003C802440244024408E
:1059E000238000001F8024402440344003800000B6
:1059F0003000200027C03800200000001B80244019
:105A0000244024401B8000001C0022C02240224071
:105A10001F8000000000000008400000000000009F
:105A2000000000000460000000000000000004000E
:105A30000A00110020804040090009000900090007
:105A40000900000000004040208011000A0004000E
:105A50001800200023402400180000001F80204070
:105A6000274029401F400000004007C039000F00B8
:105A700001C0004020403FC0244024401B80000063
:105A80001F802040204020403080000020403FC048
:105A9000204020401F80000020403FC024402E4076
:105AA00030C0000020403FC024402E0030000000E5
:105AB0000F001080204022403380020020403FC071
:105AC000040004003FC02040204020403FC0204050
:105AD000204000000060202020203FC02000200047
